:03000000020338C0
:10000B000202BB758A00758C00D28C43B71075A8A1
:02001B0092222F
:1000230002026F75B10075B2001202E212000EC235
:1000330001750813750988750800750900C2032046
:1000430004022173C2AF1201ACEF70022169900068
:1000530000E0FFEF12031200772200D9A0006AA488
:100063000162AB0000016C12021B750800750900E8
:10007300C201216C75C7AA75C755439F0175C7AAED
:1000830075C75543A50175AEFF75AF22750F007592
:100093001000C3E5109488E50F94005034AF10EFBF
:1000A30075F080A4FFEF54FFF5A6E510AE0F7807B7
:1000B300C333CE33CED8F9FFEEFF7E008FA775C7CB
:1000C300AA75C75543A4010510E5107002050F80FA
:1000D300C112021B216C900004E0FF7E008E0F8F83
:1000E30010900005E0FF7E00EF7F00FEEF4210EE70
:1000F300420F750B08E50BC39496505E75AF21AFA5
:1001030010EF54FFF5A6E50FFF7E008FA7AF0B742A
:10011300002FF582E43400F583E0FF8FAE75C7AAA4
:1001230075C75543A40175AF0075C7AA75C7554375
:10013300A401AF0B74002FF582E43400F583E0FFD4
:10014300E5AE6F600280FEE59FB4430280FE0510BA
:10015300E5107002050F050B809B12021B800A122B
:10016300021B803080031202FBC204750E00D2AF63
:100173002001212002020142E50EC394965007E5B7
:100183000ED394005009E50ED394965002014275A4
:100193000E00014275C7AA75C755539FFD75C7AABF
:1001A30075C755439F8080FE227511007512007537
:1001B3001300751400751500751608C3E51694969B
:1001C300E51594005026AE15AF1674002FF5827412
:1001D300003EF583E0FF7E00EF2512F512EE3511A8
:1001E300F5110516E5167002051580CF900002E0A3
:1001F300FF7E008E138F14900003E0FF7E00EF7FDD
:1002030000FEEF4214EE4213E514B51208E513B5F0
:1002130011037F01227F0022900000E0FF900098ED
:10022300EFF0900001E0FFEF04FF900099EFF090F2
:10023300009FE4F0750B00E50BC39408502DC299A1
:10024300AF0B74982FF582E43400F583E0FF8F99A8
:10025300AF0B74982FF582E43400F583E0FF900030
:100263009FE02FF03099FD050B80CC22C0E0C083C6
:10027300C082C0D075D000C007309813AF0E050EF2
:1002830074002FF582E43400F583E599F0C29830C9
:100293009902C299E50EB40105C202750A5AE50E28
:1002A300B4960AD204750A00C202750E00D007D0B4
:1002B300D0D082D083D0E032C0E0E5094508601099
:1002C300E509150970021508E50945087002D20110
:1002D300E50A6008150AE50A7002D202D0E0327519
:1002E3009852438922438780438E1053C4DF758D10
:1002F300F7D28ED2ACD2AF22750B00E50BC39408B4
:10030300500CC2997599FF3099FD050B80ED22D0F1
:1003130083D082F8E4937012740193700DA3A393B6
:10032300F8740193F5828883E4737402936860EF31
:10033300A3A3A380DF7800E4F6D8FD9000007FFF3D
:0F0343007E01E4F0A3DFFCDEFA758120020026C4
:00000001FF
