:03000000020332C6
:10000B000202B5758A00758C00D28C43B71075A8A7
:02001B0092222F
:1000230002026975B10075B2001202DC12000EC241
:10003300017508077509D0C203200402216DC2AF00
:100043001201A6EF70022163900000E0FFEF12039C
:100053000C00712200D3A00064A4015CAB0000017A
:1000630066120215750800750900C201216675C77D
:10007300AA75C755439F0175C7AA75C75543A501FF
:1000830075AEFF75AF22750F00751000C3E51094B0
:1000930088E50F94005034AF10EF75F080A4FFEFA4
:1000A30054FFF5A6E510AE0F7807C333CE33CED891
:1000B300F9FFEEFF7E008FA775C7AA75C75543A446
:1000C300010510E5107002050F80C11202152166AB
:1000D300900004E0FF7E008E0F8F10900005E0FF7C
:1000E3007E00EF7F00FEEF4210EE420F750B08E536
:1000F3000BC39496505E75AF21AF10EF54FFF5A676
:10010300E50FFF7E008FA7AF0B74002FF582E43459
:1001130000F583E0FF8FAE75C7AA75C75543A401E9
:1001230075AF0075C7AA75C75543A401AF0B74001B
:100133002FF582E43400F583E0FFE5AE6F600280C3
:10014300FEE59FB4430280FE0510E5107002050F23
:10015300050B809B120215800A1202158030800362
:100163001202F5C204750E00D2AF20012120020253
:10017300013CE50EC394965007E50ED39400500955
:10018300E50ED394965002013C750E00013C75C7F1
:10019300AA75C755539FFD75C7AA75C755439F8059
:1001A30080FE227511007512007513007514007519
:1001B3001500751608C3E5169496E51594005026A8
:1001C300AE15AF1674002FF58274003EF583E0FF81
:1001D3007E00EF2512F512EE3511F5110516E51621
:1001E3007002051580CF900002E0FF7E008E138F12
:1001F30014900003E0FF7E00EF7F00FEEF4214EE59
:100203004213E514B51208E513B511037F01227FEC
:100213000022900000E0FF900098EFF0900001E0D2
:10022300FFEF04FF900099EFF090009FE4F0750B4F
:1002330000E50BC39408502DC299AF0B74982FF5AA
:1002430082E43400F583E0FF8F99AF0B74982FF5A8
:1002530082E43400F583E0FF90009FE02FF03099B3
:10026300FD050B80CC22C0E0C083C082C0D075D016
:1002730000C007309813AF0E050E74002FF582E40B
:100283003400F583E599F0C298309902C299E50EDE
:10029300B40105C202750A5AE50EB4960AD2047572
:1002A3000A00C202750E00D007D0D0D082D083D00E
:1002B300E032C0E0E50945086010E5091509700260
:1002C3001508E50945087002D201E50A6008150A18
:1002D300E50A7002D202D0E0327598524389224374
:1002E3008780438E1053C4DF758DF7D28ED2ACD284
:1002F300AF22750B00E50BC39408500CC299759996
:10030300FF3099FD050B80ED22D083D082F8E49372
:100313007012740193700DA3A393F8740193F58283
:100323008883E4737402936860EFA3A3A380DF78E8
:1003330000E4F6D8FD9000007FFF7E01E4F0A3DF28
:09034300FCDEFA7581200200269F
:00000001FF
